{
  "_format": "hh-sol-artifact-1",
  "contractName": "MedicalRecord",
  "sourceName": "contracts/MedicalRecord.sol",
  "abi": [
    {
      "inputs": [],
      "stateMutability": "nonpayable",
      "type": "constructor"
    },
    {
      "inputs": [
        {
          "internalType": "address",
          "name": "owner",
          "type": "address"
        }
      ],
      "name": "OwnableInvalidOwner",
      "type": "error"
    },
    {
      "inputs": [
        {
          "internalType": "address",
          "name": "account",
          "type": "address"
        }
      ],
      "name": "OwnableUnauthorizedAccount",
      "type": "error"
    },
    {
      "anonymous": false,
      "inputs": [
        {
          "indexed": true,
          "internalType": "address",
          "name": "patient",
          "type": "address"
        },
        {
          "indexed": true,
          "internalType": "address",
          "name": "grantedTo",
          "type": "address"
        }
      ],
      "name": "AccessGranted",
      "type": "event"
    },
    {
      "anonymous": false,
      "inputs": [
        {
          "indexed": true,
          "internalType": "address",
          "name": "patient",
          "type": "address"
        },
        {
          "indexed": true,
          "internalType": "address",
          "name": "revokedFrom",
          "type": "address"
        }
      ],
      "name": "AccessRevoked",
      "type": "event"
    },
    {
      "anonymous": false,
      "inputs": [
        {
          "indexed": true,
          "internalType": "address",
          "name": "doctor",
          "type": "address"
        }
      ],
      "name": "DoctorRegistered",
      "type": "event"
    },
    {
      "anonymous": false,
      "inputs": [
        {
          "indexed": true,
          "internalType": "address",
          "name": "previousOwner",
          "type": "address"
        },
        {
          "indexed": true,
          "internalType": "address",
          "name": "newOwner",
          "type": "address"
        }
      ],
      "name": "OwnershipTransferred",
      "type": "event"
    },
    {
      "anonymous": false,
      "inputs": [
        {
          "indexed": true,
          "internalType": "address",
          "name": "patient",
          "type": "address"
        }
      ],
      "name": "PatientRegistered",
      "type": "event"
    },
    {
      "anonymous": false,
      "inputs": [
        {
          "indexed": true,
          "internalType": "uint256",
          "name": "recordId",
          "type": "uint256"
        },
        {
          "indexed": true,
          "internalType": "address",
          "name": "doctor",
          "type": "address"
        },
        {
          "indexed": true,
          "internalType": "uint256",
          "name": "timestamp",
          "type": "uint256"
        }
      ],
      "name": "RecordCreated",
      "type": "event"
    },
    {
      "anonymous": false,
      "inputs": [
        {
          "indexed": true,
          "internalType": "uint256",
          "name": "recordId",
          "type": "uint256"
        },
        {
          "indexed": true,
          "internalType": "string",
          "name": "newIpfsCid",
          "type": "string"
        },
        {
          "indexed": true,
          "internalType": "uint256",
          "name": "timestamp",
          "type": "uint256"
        }
      ],
      "name": "RecordUpdated",
      "type": "event"
    },
    {
      "inputs": [
        {
          "internalType": "address",
          "name": "_patient",
          "type": "address"
        },
        {
          "internalType": "string",
          "name": "_ipfsCid",
          "type": "string"
        },
        {
          "internalType": "bytes32",
          "name": "_recordHash",
          "type": "bytes32"
        }
      ],
      "name": "addRecord",
      "outputs": [],
      "stateMutability": "nonpayable",
      "type": "function"
    },
    {
      "inputs": [
        {
          "internalType": "uint256",
          "name": "_recordId",
          "type": "uint256"
        }
      ],
      "name": "canView",
      "outputs": [
        {
          "internalType": "bool",
          "name": "",
          "type": "bool"
        }
      ],
      "stateMutability": "view",
      "type": "function"
    },
    {
      "inputs": [],
      "name": "getPersonalRecords",
      "outputs": [
        {
          "internalType": "uint256[]",
          "name": "",
          "type": "uint256[]"
        }
      ],
      "stateMutability": "view",
      "type": "function"
    },
    {
      "inputs": [
        {
          "internalType": "uint256",
          "name": "_recordId",
          "type": "uint256"
        }
      ],
      "name": "getRecord",
      "outputs": [
        {
          "components": [
            {
              "internalType": "address",
              "name": "patient",
              "type": "address"
            },
            {
              "internalType": "address",
              "name": "doctor",
              "type": "address"
            },
            {
              "internalType": "string",
              "name": "ipfsCid",
              "type": "string"
            },
            {
              "internalType": "bytes32",
              "name": "recordHash",
              "type": "bytes32"
            },
            {
              "internalType": "uint256",
              "name": "timestamp",
              "type": "uint256"
            }
          ],
          "internalType": "struct MedicalRecord.Record",
          "name": "",
          "type": "tuple"
        }
      ],
      "stateMutability": "view",
      "type": "function"
    },
    {
      "inputs": [
        {
          "internalType": "address",
          "name": "_doctor",
          "type": "address"
        }
      ],
      "name": "grantAccess",
      "outputs": [],
      "stateMutability": "nonpayable",
      "type": "function"
    },
    {
      "inputs": [],
      "name": "owner",
      "outputs": [
        {
          "internalType": "address",
          "name": "",
          "type": "address"
        }
      ],
      "stateMutability": "view",
      "type": "function"
    },
    {
      "inputs": [
        {
          "internalType": "uint256",
          "name": "",
          "type": "uint256"
        }
      ],
      "name": "records",
      "outputs": [
        {
          "internalType": "address",
          "name": "patient",
          "type": "address"
        },
        {
          "internalType": "address",
          "name": "doctor",
          "type": "address"
        },
        {
          "internalType": "string",
          "name": "ipfsCid",
          "type": "string"
        },
        {
          "internalType": "bytes32",
          "name": "recordHash",
          "type": "bytes32"
        },
        {
          "internalType": "uint256",
          "name": "timestamp",
          "type": "uint256"
        }
      ],
      "stateMutability": "view",
      "type": "function"
    },
    {
      "inputs": [
        {
          "internalType": "address",
          "name": "",
          "type": "address"
        },
        {
          "internalType": "address",
          "name": "",
          "type": "address"
        }
      ],
      "name": "recordsAccess",
      "outputs": [
        {
          "internalType": "bool",
          "name": "",
          "type": "bool"
        }
      ],
      "stateMutability": "view",
      "type": "function"
    },
    {
      "inputs": [
        {
          "internalType": "address",
          "name": "_doctor",
          "type": "address"
        }
      ],
      "name": "registerDoctor",
      "outputs": [],
      "stateMutability": "nonpayable",
      "type": "function"
    },
    {
      "inputs": [
        {
          "internalType": "address",
          "name": "_patient",
          "type": "address"
        }
      ],
      "name": "registerPatient",
      "outputs": [],
      "stateMutability": "nonpayable",
      "type": "function"
    },
    {
      "inputs": [],
      "name": "renounceOwnership",
      "outputs": [],
      "stateMutability": "nonpayable",
      "type": "function"
    },
    {
      "inputs": [
        {
          "internalType": "address",
          "name": "_doctor",
          "type": "address"
        }
      ],
      "name": "revokeAccess",
      "outputs": [],
      "stateMutability": "nonpayable",
      "type": "function"
    },
    {
      "inputs": [
        {
          "internalType": "address",
          "name": "newOwner",
          "type": "address"
        }
      ],
      "name": "transferOwnership",
      "outputs": [],
      "stateMutability": "nonpayable",
      "type": "function"
    },
    {
      "inputs": [
        {
          "internalType": "uint256",
          "name": "_recordId",
          "type": "uint256"
        },
        {
          "internalType": "string",
          "name": "_newIpfsCid",
          "type": "string"
        },
        {
          "internalType": "bytes32",
          "name": "_newRecordHash",
          "type": "bytes32"
        }
      ],
      "name": "updateRecord",
      "outputs": [],
      "stateMutability": "nonpayable",
      "type": "function"
    }
  ],
  "bytecode": "0x608060409080825234620002c2573315620002ac5750600080546001600160a01b03198082163390811784556001600160a01b0394939285167f8be0079c531659141344cd1fd0a4f28419497f9722a3daafe3b4186f6b6457e08480a38251916001600160401b039060a0840182811185821017620002985785528084526020918285019282845286519281840184811084821117620002985788528084528787019384526060870194818652608088019682885260019a8b54680100000000000000008110156200028457808d01808e55811015620002705781908d865260058787209102019a5116828b5416178a558b8a01925116908254161790556002870193519081519384116200025c5784548a81811c9116801562000251575b848210146200023d57601f8111620001f2575b5082601f851160011462000187575098839283926004999a9b946200017b575b50501b916000199060031b1c19161790555b51600384015551910155516111079081620002c88239f35b01519250388062000151565b9993929091601f1984169a86845280842093905b8c8210620001da575050836004999a9b10620001c0575b505050811b01905562000163565b015160001960f88460031b161c19169055388080620001b2565b8087859682949686015181550195019301906200019b565b858252838220601f860160051c81019185871062000232575b601f0160051c01908b905b8281106200022657505062000131565b838155018b9062000216565b90915081906200020b565b634e487b7160e01b82526022600452602482fd5b90607f16906200011e565b634e487b7160e01b81526041600452602490fd5b634e487b7160e01b85526032600452602485fd5b634e487b7160e01b85526041600452602485fd5b634e487b7160e01b82526041600452602482fd5b631e4fbdf760e01b815260006004820152602490fd5b600080fdfe6040608081526004908136101561001557600080fd5b600091823560e01c806302b7dcbe14610c7b57806303e9e60914610af45780630ae5e73914610a5a5780631388c519146109f1578063344610671461096b57806345f9ba6d146108c857806348515c46146105a5578063699ca9981461053c578063715018a6146104df57806385e68531146104485780638da5cb5b14610420578063ce7d33de146101a1578063dab640a6146101445763f2fde38b146100bb57600080fd5b34610140576020366003190112610140576100d4610d6c565b906100dd6110a5565b6001600160a01b0391821692831561012a57505082546001600160a01b0319811683178455167f8be0079c531659141344cd1fd0a4f28419497f9722a3daafe3b4186f6b6457e08380a380f35b51631e4fbdf760e01b8152908101849052602490fd5b8280fd5b50503461019d578060031936011261019d5761015e610d6c565b6001600160a01b036024358181169290839003610199579360ff92849260209616825260038652828220908252855220541690519015158152f35b8480fd5b5080fd5b50346101405760603660031901126101405780359067ffffffffffffffff60243581811161041c576101d69036908401610f0b565b949094338752602093600585526101f260ff848a20541661100a565b85151580610411575b61020490610f85565b61020d86610d87565b50916001973360018060a01b038a86015416036103a85760028401958211610395576102438261023d8854610dd8565b8861104f565b8990601f83116001146103345761027292918b9183610329575b50508160011b916000199060031b1c19161790565b84555b6044356003830155429101555191859482549261029184610dd8565b9382811690811561030e57506001146102d7575b50505050804293039020907f088d9e16504277bf999412471e756eedf1ab2491c6a6399c9d349d3fea6d70cf8480a480f35b90919293955086528186209086915b8483106102fd5750505050820191388080806102a5565b8054878401529183019181016102e6565b60ff19168652505050508015150281019250388080806102a5565b01359050388061025d565b868b52878b208a9392909190601f1984168d5b8b82821061037f5750508411610365575b505050811b018455610275565b0135600019600384901b60f8161c19169055388080610358565b8385013586558e97909501949283019201610347565b634e487b7160e01b8a526041835260248afd5b845162461bcd60e51b8152808401889052603f60248201527f4f6e6c792074686520646f63746f72207468617420637265617465642074686560448201527f207265636f726420697320616c6c6f77656420746f20757064617465206974006064820152608490fd5b5060015486106101fb565b8580fd5b50503461019d578160031936011261019d57905490516001600160a01b039091168152602090f35b503461014057602036600319011261014057610462610d6c565b9033845260205261047860ff8385205416610f39565b6001600160a01b031680835260056020528183205490919061049c9060ff16610fc5565b3383526003602052808320828452602052822060ff198154169055337f825c8be24eb0df19500f63e86c29e7d0d951e73056b889b891d85e40938d9b6e8380a380f35b83346105395780600319360112610539576104f86110a5565b80546001600160a01b03198116825581906001600160a01b03167f8be0079c531659141344cd1fd0a4f28419497f9722a3daafe3b4186f6b6457e08280a380f35b80fd5b50503461019d57602036600319011261019d57610557610d6c565b61055f6110a5565b6001600160a01b03168083526005602052908220805460ff191660011790557f2dc8105a7545248d0e354c4c6b02fb583071cc719fb4bef1ca74d72d475570bc8280a280f35b509034610140576060366003190112610140576105c0610d6c565b602467ffffffffffffffff81358181116108c4576105e19036908701610f0b565b929092338852602091600583526105fd60ff888b20541661100a565b6001600160a01b03958616808a52888452878a205490989060ff16156108925787519761062989610e12565b89895284890196338852868511610880578b9082519561065288601f19601f8401160188610e44565b808752368183011161014057808892838901378601015280890193845260608901986044358a526080810199428b5260019586549868010000000000000000998a81101561085b5780896106a892018a55610d87565b94909461086e578c9051166bffffffffffffffffffffffff60a01b9081865416178555888501908d8d51169082541617905560028401915190815190811161085b578f6106ff826106f98654610dd8565b8661104f565b8a90601f83116001146107fc579061072b93836107f15750508160011b916000199060031b1c19161790565b90555b516003820155895190830155835460001981019a908b116107df57808c5260038652818c20338d528652818c208560ff198254161790558b52600285528a20928354958610156107cd5785018084558510156107bc5750509086929188528720015551169051917f5db2b66a36d642da12984088597eea7ecb05a7cf389f50b7beab60876d172ad28480a480f35b634e487b7160e01b8a526032905288fd5b50634e487b7160e01b8a526041905288fd5b634e487b7160e01b8c5260118352838cfd5b01519050388061025d565b908a93601f1984168684528d80852094905b828210610844575050841161082b575b505050811b01905561072e565b015160001960f88460031b161c1916905538808061081e565b8385015186558e979095019493840193018e61080e565b50634e487b7160e01b8f5260418652868ffd5b50634e487b7160e01b8f528e8652868ffd5b634e487b7160e01b8c5260418352838cfd5b600f606492858a519362461bcd60e51b85528401528201526e155b9adb9bdddb881c185d1a595b9d608a1b6044820152fd5b8680fd5b5091903461019d57602036600319011261019d57602092359182151580610960575b6108f390610f85565b6108fc83610d87565b50546001600160a01b039081169360019061091690610d87565b5001541692338114938415610956575b508315610938575b5050519015158152f35b81526003845281812033825284528190205460ff169150388061092e565b3314935038610926565b5060015483106108ea565b50913461053957602036600319011261053957823590600154821015610539575061099590610d87565b50805460018201546001600160a01b0390811694911692906109e29060a06109bf60028601610e66565b9160038601549501549380519788978852602088015286015260a0850190610d2c565b91606084015260808301520390f35b50903461014057602036600319011261014057610a0c610d6c565b610a146110a5565b6001600160a01b03168084526020929092528220805460ff191660011790557fc9fa2003fca4ce0dfc8cb0deae32266b715536df6685365b05b5be96ede8e49c8280a280f35b503461014057602036600319011261014057610a74610d6c565b90338452602052610a8a60ff8385205416610f39565b6001600160a01b0316808352600560205281832054909190610aae9060ff16610fc5565b33835260036020528083208284526020528220600160ff19825416179055337f9f520b3bfc56d06f7065d10b4683b3f57ac8895d5026cd176dee95ce1454cb8d8380a380f35b503461014057602080600319360112610c775781358460808551610b1781610e12565b82815282858201526060878201528260608201520152610b3681610d87565b50546001600160a01b0395908616908590876001610b5386610d87565b5001541692338114938415610c6d575b508315610c50575b50505015610c1f57610b9181610c0392151580610c14575b610b8c90610f85565b610d87565b5092845194610b9f86610e12565b8685541686528680600187015416858801908152610bbf60028801610e66565b9383890194855260038801549760608a01988952015495608089019687528351998a99828b525116908901525116908601525160a0606086015260c0850190610d2c565b915160808401525160a08301520390f35b506001548110610b83565b50606492519162461bcd60e51b8352820152600d60248201526c1058d8d95cdcc819195b9a5959609a1b6044820152fd5b60ff93508152600385528181203382528552205416843880610b6b565b3314935038610b63565b8380fd5b50823461053957806003193601126105395782903381526020928352610ca660ff8383205416610f39565b33815260028352818120908251808584549182815201908194845286842090845b818110610d185750505081610cdd910382610e44565b83519485948186019282875251809352850193925b828110610d0157505050500390f35b835185528695509381019392810192600101610cf2565b825484529288019260019283019201610cc7565b919082519283825260005b848110610d58575050826000602080949584010152601f8019910116010190565b602081830181015184830182015201610d37565b600435906001600160a01b0382168203610d8257565b600080fd5b600154811015610dc2576005906001600052027fb10e2d527612073b26eecdfd717e6a320cf44b4afac2b0732d9fcbe2b7fa0cf60190600090565b634e487b7160e01b600052603260045260246000fd5b90600182811c92168015610e08575b6020831014610df257565b634e487b7160e01b600052602260045260246000fd5b91607f1691610de7565b60a0810190811067ffffffffffffffff821117610e2e57604052565b634e487b7160e01b600052604160045260246000fd5b90601f8019910116810190811067ffffffffffffffff821117610e2e57604052565b90604051918260008254610e7981610dd8565b90818452602094600191600181169081600014610ee95750600114610eaa575b505050610ea892500383610e44565b565b600090815285812095935091905b818310610ed1575050610ea89350820101388080610e99565b85548884018501529485019487945091830191610eb8565b92505050610ea894925060ff191682840152151560051b820101388080610e99565b9181601f84011215610d825782359167ffffffffffffffff8311610d825760208381860195010111610d8257565b15610f4057565b60405162461bcd60e51b815260206004820152601760248201527f43616c6c6572206973206e6f7420612070617469656e740000000000000000006044820152606490fd5b15610f8c57565b60405162461bcd60e51b8152602060048201526011602482015270125b9d985b1a59081c9958dbdc99081251607a1b6044820152606490fd5b15610fcc57565b60405162461bcd60e51b81526020600482015260166024820152752a30b933b2ba1034b9903737ba1030903237b1ba37b960511b6044820152606490fd5b1561101157565b60405162461bcd60e51b815260206004820152601660248201527521b0b63632b91034b9903737ba1030903237b1ba37b960511b6044820152606490fd5b90601f811161105d57505050565b6000916000526020600020906020601f850160051c8301941061109b575b601f0160051c01915b82811061109057505050565b818155600101611084565b909250829061107b565b6000546001600160a01b031633036110b957565b60405163118cdaa760e01b8152336004820152602490fdfea2646970667358221220f0db91a86297abadefc54ff143010179702200ff2a225f5600f748af7d7fe5c864736f6c63430008170033",
  "linkReferences": {},
  "deployedLinkReferences": {}
}