{"contracts/MedicalRecord.sol":{"MedicalRecord":{"abi":[{"inputs":[],"stateMutability":"nonpayable","type":"constructor"},{"inputs":[{"internalType":"address","name":"owner","type":"address"}],"name":"OwnableInvalidOwner","type":"error"},{"inputs":[{"internalType":"address","name":"account","type":"address"}],"name":"OwnableUnauthorizedAccount","type":"error"},{"anonymous":false,"inputs":[{"indexed":true,"internalType":"address","name":"patient","type":"address"},{"indexed":true,"internalType":"address","name":"grantedTo","type":"address"}],"name":"AccessGranted","type":"event"},{"anonymous":false,"inputs":[{"indexed":true,"internalType":"address","name":"patient","type":"address"},{"indexed":true,"internalType":"address","name":"revokedFrom","type":"address"}],"name":"AccessRevoked","type":"event"},{"anonymous":false,"inputs":[{"indexed":true,"internalType":"address","name":"doctor","type":"address"}],"name":"DoctorRegistered","type":"event"},{"anonymous":false,"inputs":[{"indexed":true,"internalType":"address","name":"previousOwner","type":"address"},{"indexed":true,"internalType":"address","name":"newOwner","type":"address"}],"name":"OwnershipTransferred","type":"event"},{"anonymous":false,"inputs":[{"indexed":true,"internalType":"address","name":"patient","type":"address"}],"name":"PatientRegistered","type":"event"},{"anonymous":false,"inputs":[{"indexed":true,"internalType":"uint256","name":"recordId","type":"uint256"},{"indexed":true,"internalType":"address","name":"doctor","type":"address"},{"indexed":true,"internalType":"uint256","name":"timestamp","type":"uint256"}],"name":"RecordCreated","type":"event"},{"anonymous":false,"inputs":[{"indexed":true,"internalType":"uint256","name":"recordId","type":"uint256"},{"indexed":true,"internalType":"string","name":"newIpfsCid","type":"string"},{"indexed":true,"internalType":"uint256","name":"timestamp","type":"uint256"}],"name":"RecordUpdated","type":"event"},{"inputs":[{"internalType":"address","name":"_patient","type":"address"},{"internalType":"string","name":"_ipfsCid","type":"string"},{"internalType":"bytes32","name":"_recordHash","type":"bytes32"}],"name":"addRecord","outputs":[],"stateMutability":"nonpayable","type":"function"},{"inputs":[{"internalType":"uint256","name":"_recordId","type":"uint256"}],"name":"canView","outputs":[{"internalType":"bool","name":"","type":"bool"}],"stateMutability":"view","type":"function"},{"inputs":[],"name":"getPersonalRecords","outputs":[{"internalType":"uint256[]","name":"","type":"uint256[]"}],"stateMutability":"view","type":"function"},{"inputs":[{"internalType":"uint256","name":"_recordId","type":"uint256"}],"name":"getRecord","outputs":[{"components":[{"internalType":"address","name":"patient","type":"address"},{"internalType":"address","name":"doctor","type":"address"},{"internalType":"string","name":"ipfsCid","type":"string"},{"internalType":"bytes32","name":"recordHash","type":"bytes32"},{"internalType":"uint256","name":"timestamp","type":"uint256"}],"internalType":"struct MedicalRecord.Record","name":"","type":"tuple"}],"stateMutability":"view","type":"function"},{"inputs":[{"internalType":"address","name":"_doctor","type":"address"}],"name":"grantAccess","outputs":[],"stateMutability":"nonpayable","type":"function"},{"inputs":[],"name":"owner","outputs":[{"internalType":"address","name":"","type":"address"}],"stateMutability":"view","type":"function"},{"inputs":[{"internalType":"uint256","name":"","type":"uint256"}],"name":"records","outputs":[{"internalType":"address","name":"patient","type":"address"},{"internalType":"address","name":"doctor","type":"address"},{"internalType":"string","name":"ipfsCid","type":"string"},{"internalType":"bytes32","name":"recordHash","type":"bytes32"},{"internalType":"uint256","name":"timestamp","type":"uint256"}],"stateMutability":"view","type":"function"},{"inputs":[{"internalType":"address","name":"","type":"address"},{"internalType":"address","name":"","type":"address"}],"name":"recordsAccess","outputs":[{"internalType":"bool","name":"","type":"bool"}],"stateMutability":"view","type":"function"},{"inputs":[{"internalType":"address","name":"_doctor","type":"address"}],"name":"registerDoctor","outputs":[],"stateMutability":"nonpayable","type":"function"},{"inputs":[{"internalType":"address","name":"_patient","type":"address"}],"name":"registerPatient","outputs":[],"stateMutability":"nonpayable","type":"function"},{"inputs":[],"name":"renounceOwnership","outputs":[],"stateMutability":"nonpayable","type":"function"},{"inputs":[{"internalType":"address","name":"_doctor","type":"address"}],"name":"revokeAccess","outputs":[],"stateMutability":"nonpayable","type":"function"},{"inputs":[{"internalType":"address","name":"newOwner","type":"address"}],"name":"transferOwnership","outputs":[],"stateMutability":"nonpayable","type":"function"},{"inputs":[{"internalType":"uint256","name":"_recordId","type":"uint256"},{"internalType":"string","name":"_newIpfsCid","type":"string"},{"internalType":"bytes32","name":"_newRecordHash","type":"bytes32"}],"name":"updateRecord","outputs":[],"stateMutability":"nonpayable","type":"function"}],"evm":{"bytecode":{"linkReferences":{},"object":"608060409080825234620002c2573315620002ac5750600080546001600160a01b03198082163390811784556001600160a01b0394939285167f8be0079c531659141344cd1fd0a4f28419497f9722a3daafe3b4186f6b6457e08480a38251916001600160401b039060a0840182811185821017620002985785528084526020918285019282845286519281840184811084821117620002985788528084528787019384526060870194818652608088019682885260019a8b54680100000000000000008110156200028457808d01808e55811015620002705781908d865260058787209102019a5116828b5416178a558b8a01925116908254161790556002870193519081519384116200025c5784548a81811c9116801562000251575b848210146200023d57601f8111620001f2575b5082601f851160011462000187575098839283926004999a9b946200017b575b50501b916000199060031b1c19161790555b51600384015551910155516111079081620002c88239f35b01519250388062000151565b9993929091601f1984169a86845280842093905b8c8210620001da575050836004999a9b10620001c0575b505050811b01905562000163565b015160001960f88460031b161c19169055388080620001b2565b8087859682949686015181550195019301906200019b565b858252838220601f860160051c81019185871062000232575b601f0160051c01908b905b8281106200022657505062000131565b838155018b9062000216565b90915081906200020b565b634e487b7160e01b82526022600452602482fd5b90607f16906200011e565b634e487b7160e01b81526041600452602490fd5b634e487b7160e01b85526032600452602485fd5b634e487b7160e01b85526041600452602485fd5b634e487b7160e01b82526041600452602482fd5b631e4fbdf760e01b815260006004820152602490fd5b600080fdfe6040608081526004908136101561001557600080fd5b600091823560e01c806302b7dcbe14610c7b57806303e9e60914610af45780630ae5e73914610a5a5780631388c519146109f1578063344610671461096b57806345f9ba6d146108c857806348515c46146105a5578063699ca9981461053c578063715018a6146104df57806385e68531146104485780638da5cb5b14610420578063ce7d33de146101a1578063dab640a6146101445763f2fde38b146100bb57600080fd5b34610140576020366003190112610140576100d4610d6c565b906100dd6110a5565b6001600160a01b0391821692831561012a57505082546001600160a01b0319811683178455167f8be0079c531659141344cd1fd0a4f28419497f9722a3daafe3b4186f6b6457e08380a380f35b51631e4fbdf760e01b8152908101849052602490fd5b8280fd5b50503461019d578060031936011261019d5761015e610d6c565b6001600160a01b036024358181169290839003610199579360ff92849260209616825260038652828220908252855220541690519015158152f35b8480fd5b5080fd5b50346101405760603660031901126101405780359067ffffffffffffffff60243581811161041c576101d69036908401610f0b565b949094338752602093600585526101f260ff848a20541661100a565b85151580610411575b61020490610f85565b61020d86610d87565b50916001973360018060a01b038a86015416036103a85760028401958211610395576102438261023d8854610dd8565b8861104f565b8990601f83116001146103345761027292918b9183610329575b50508160011b916000199060031b1c19161790565b84555b6044356003830155429101555191859482549261029184610dd8565b9382811690811561030e57506001146102d7575b50505050804293039020907f088d9e16504277bf999412471e756eedf1ab2491c6a6399c9d349d3fea6d70cf8480a480f35b90919293955086528186209086915b8483106102fd5750505050820191388080806102a5565b8054878401529183019181016102e6565b60ff19168652505050508015150281019250388080806102a5565b01359050388061025d565b868b52878b208a9392909190601f1984168d5b8b82821061037f5750508411610365575b505050811b018455610275565b0135600019600384901b60f8161c19169055388080610358565b8385013586558e97909501949283019201610347565b634e487b7160e01b8a526041835260248afd5b845162461bcd60e51b8152808401889052603f60248201527f4f6e6c792074686520646f63746f72207468617420637265617465642074686560448201527f207265636f726420697320616c6c6f77656420746f20757064617465206974006064820152608490fd5b5060015486106101fb565b8580fd5b50503461019d578160031936011261019d57905490516001600160a01b039091168152602090f35b503461014057602036600319011261014057610462610d6c565b9033845260205261047860ff8385205416610f39565b6001600160a01b031680835260056020528183205490919061049c9060ff16610fc5565b3383526003602052808320828452602052822060ff198154169055337f825c8be24eb0df19500f63e86c29e7d0d951e73056b889b891d85e40938d9b6e8380a380f35b83346105395780600319360112610539576104f86110a5565b80546001600160a01b03198116825581906001600160a01b03167f8be0079c531659141344cd1fd0a4f28419497f9722a3daafe3b4186f6b6457e08280a380f35b80fd5b50503461019d57602036600319011261019d57610557610d6c565b61055f6110a5565b6001600160a01b03168083526005602052908220805460ff191660011790557f2dc8105a7545248d0e354c4c6b02fb583071cc719fb4bef1ca74d72d475570bc8280a280f35b509034610140576060366003190112610140576105c0610d6c565b602467ffffffffffffffff81358181116108c4576105e19036908701610f0b565b929092338852602091600583526105fd60ff888b20541661100a565b6001600160a01b03958616808a52888452878a205490989060ff16156108925787519761062989610e12565b89895284890196338852868511610880578b9082519561065288601f19601f8401160188610e44565b808752368183011161014057808892838901378601015280890193845260608901986044358a526080810199428b5260019586549868010000000000000000998a81101561085b5780896106a892018a55610d87565b94909461086e578c9051166bffffffffffffffffffffffff60a01b9081865416178555888501908d8d51169082541617905560028401915190815190811161085b578f6106ff826106f98654610dd8565b8661104f565b8a90601f83116001146107fc579061072b93836107f15750508160011b916000199060031b1c19161790565b90555b516003820155895190830155835460001981019a908b116107df57808c5260038652818c20338d528652818c208560ff198254161790558b52600285528a20928354958610156107cd5785018084558510156107bc5750509086929188528720015551169051917f5db2b66a36d642da12984088597eea7ecb05a7cf389f50b7beab60876d172ad28480a480f35b634e487b7160e01b8a526032905288fd5b50634e487b7160e01b8a526041905288fd5b634e487b7160e01b8c5260118352838cfd5b01519050388061025d565b908a93601f1984168684528d80852094905b828210610844575050841161082b575b505050811b01905561072e565b015160001960f88460031b161c1916905538808061081e565b8385015186558e979095019493840193018e61080e565b50634e487b7160e01b8f5260418652868ffd5b50634e487b7160e01b8f528e8652868ffd5b634e487b7160e01b8c5260418352838cfd5b600f606492858a519362461bcd60e51b85528401528201526e155b9adb9bdddb881c185d1a595b9d608a1b6044820152fd5b8680fd5b5091903461019d57602036600319011261019d57602092359182151580610960575b6108f390610f85565b6108fc83610d87565b50546001600160a01b039081169360019061091690610d87565b5001541692338114938415610956575b508315610938575b5050519015158152f35b81526003845281812033825284528190205460ff169150388061092e565b3314935038610926565b5060015483106108ea565b50913461053957602036600319011261053957823590600154821015610539575061099590610d87565b50805460018201546001600160a01b0390811694911692906109e29060a06109bf60028601610e66565b9160038601549501549380519788978852602088015286015260a0850190610d2c565b91606084015260808301520390f35b50903461014057602036600319011261014057610a0c610d6c565b610a146110a5565b6001600160a01b03168084526020929092528220805460ff191660011790557fc9fa2003fca4ce0dfc8cb0deae32266b715536df6685365b05b5be96ede8e49c8280a280f35b503461014057602036600319011261014057610a74610d6c565b90338452602052610a8a60ff8385205416610f39565b6001600160a01b0316808352600560205281832054909190610aae9060ff16610fc5565b33835260036020528083208284526020528220600160ff19825416179055337f9f520b3bfc56d06f7065d10b4683b3f57ac8895d5026cd176dee95ce1454cb8d8380a380f35b503461014057602080600319360112610c775781358460808551610b1781610e12565b82815282858201526060878201528260608201520152610b3681610d87565b50546001600160a01b0395908616908590876001610b5386610d87565b5001541692338114938415610c6d575b508315610c50575b50505015610c1f57610b9181610c0392151580610c14575b610b8c90610f85565b610d87565b5092845194610b9f86610e12565b8685541686528680600187015416858801908152610bbf60028801610e66565b9383890194855260038801549760608a01988952015495608089019687528351998a99828b525116908901525116908601525160a0606086015260c0850190610d2c565b915160808401525160a08301520390f35b506001548110610b83565b50606492519162461bcd60e51b8352820152600d60248201526c1058d8d95cdcc819195b9a5959609a1b6044820152fd5b60ff93508152600385528181203382528552205416843880610b6b565b3314935038610b63565b8380fd5b50823461053957806003193601126105395782903381526020928352610ca660ff8383205416610f39565b33815260028352818120908251808584549182815201908194845286842090845b818110610d185750505081610cdd910382610e44565b83519485948186019282875251809352850193925b828110610d0157505050500390f35b835185528695509381019392810192600101610cf2565b825484529288019260019283019201610cc7565b919082519283825260005b848110610d58575050826000602080949584010152601f8019910116010190565b602081830181015184830182015201610d37565b600435906001600160a01b0382168203610d8257565b600080fd5b600154811015610dc2576005906001600052027fb10e2d527612073b26eecdfd717e6a320cf44b4afac2b0732d9fcbe2b7fa0cf60190600090565b634e487b7160e01b600052603260045260246000fd5b90600182811c92168015610e08575b6020831014610df257565b634e487b7160e01b600052602260045260246000fd5b91607f1691610de7565b60a0810190811067ffffffffffffffff821117610e2e57604052565b634e487b7160e01b600052604160045260246000fd5b90601f8019910116810190811067ffffffffffffffff821117610e2e57604052565b90604051918260008254610e7981610dd8565b90818452602094600191600181169081600014610ee95750600114610eaa575b505050610ea892500383610e44565b565b600090815285812095935091905b818310610ed1575050610ea89350820101388080610e99565b85548884018501529485019487945091830191610eb8565b92505050610ea894925060ff191682840152151560051b820101388080610e99565b9181601f84011215610d825782359167ffffffffffffffff8311610d825760208381860195010111610d8257565b15610f4057565b60405162461bcd60e51b815260206004820152601760248201527f43616c6c6572206973206e6f7420612070617469656e740000000000000000006044820152606490fd5b15610f8c57565b60405162461bcd60e51b8152602060048201526011602482015270125b9d985b1a59081c9958dbdc99081251607a1b6044820152606490fd5b15610fcc57565b60405162461bcd60e51b81526020600482015260166024820152752a30b933b2ba1034b9903737ba1030903237b1ba37b960511b6044820152606490fd5b1561101157565b60405162461bcd60e51b815260206004820152601660248201527521b0b63632b91034b9903737ba1030903237b1ba37b960511b6044820152606490fd5b90601f811161105d57505050565b6000916000526020600020906020601f850160051c8301941061109b575b601f0160051c01915b82811061109057505050565b818155600101611084565b909250829061107b565b6000546001600160a01b031633036110b957565b60405163118cdaa760e01b8152336004820152602490fdfea2646970667358221220f0db91a86297abadefc54ff143010179702200ff2a225f5600f748af7d7fe5c864736f6c63430008170033","opcodes":"PUSH1 0x80 PUSH1 0x40 SWAP1 DUP1 DUP3 MSTORE CALLVALUE PUSH3 0x2C2 JUMPI CALLER ISZERO PUSH3 0x2AC JUMPI POP PUSH1 0x0 DUP1 SLOAD PUSH1 0x1 PUSH1 0x1 PUSH1 0xA0 SHL SUB NOT DUP1 DUP3 AND CALLER SWAP1 DUP2 OR DUP5 SSTORE PUSH1 0x1 PUSH1 0x1 PUSH1 0xA0 SHL SUB SWAP5 SWAP4 SWAP3 DUP6 AND PUSH32 0x8BE0079C531659141344CD1FD0A4F28419497F9722A3DAAFE3B4186F6B6457E0 DUP5 DUP1 LOG3 DUP3 MLOAD SWAP2 PUSH1 0x1 PUSH1 0x1 PUSH1 0x40 SHL SUB SWAP1 PUSH1 0xA0 DUP5 ADD DUP3 DUP2 GT DUP6 DUP3 LT OR PUSH3 0x298 JUMPI DUP6 MSTORE DUP1 DUP5 MSTORE PUSH1 0x20 SWAP2 DUP3 DUP6 ADD SWAP3 DUP3 DUP5 MSTORE DUP7 MLOAD SWAP3 DUP2 DUP5 ADD DUP5 DUP2 LT DUP5 DUP3 GT OR PUSH3 0x298 JUMPI DUP9 MSTORE DUP1 DUP5 MSTORE DUP8 DUP8 ADD SWAP4 DUP5 MSTORE PUSH1 0x60 DUP8 ADD SWAP5 DUP2 DUP7 MSTORE PUSH1 0x80 DUP9 ADD SWAP7 DUP3 DUP9 MSTORE PUSH1 0x1 SWAP11 DUP12 SLOAD PUSH9 0x10000000000000000 DUP2 LT ISZERO PUSH3 0x284 JUMPI DUP1 DUP14 ADD DUP1 DUP15 SSTORE DUP2 LT ISZERO PUSH3 0x270 JUMPI DUP2 SWAP1 DUP14 DUP7 MSTORE PUSH1 0x5 DUP8 DUP8 KECCAK256 SWAP2 MUL ADD SWAP11 MLOAD AND DUP3 DUP12 SLOAD AND OR DUP11 SSTORE DUP12 DUP11 ADD SWAP3 MLOAD AND SWAP1 DUP3 SLOAD AND OR SWAP1 SSTORE PUSH1 0x2 DUP8 ADD SWAP4 MLOAD SWAP1 DUP2 MLOAD SWAP4 DUP5 GT PUSH3 0x25C JUMPI DUP5 SLOAD DUP11 DUP2 DUP2 SHR SWAP2 AND DUP1 ISZERO PUSH3 0x251 JUMPI JUMPDEST DUP5 DUP3 LT EQ PUSH3 0x23D JUMPI PUSH1 0x1F DUP2 GT PUSH3 0x1F2 JUMPI JUMPDEST POP DUP3 PUSH1 0x1F DUP6 GT PUSH1 0x1 EQ PUSH3 0x187 JUMPI POP SWAP9 DUP4 SWAP3 DUP4 SWAP3 PUSH1 0x4 SWAP10 SWAP11 SWAP12 SWAP5 PUSH3 0x17B JUMPI JUMPDEST POP POP SHL SWAP2 PUSH1 0x0 NOT SWAP1 PUSH1 0x3 SHL SHR NOT AND OR SWAP1 SSTORE JUMPDEST MLOAD PUSH1 0x3 DUP5 ADD SSTORE MLOAD SWAP2 ADD SSTORE MLOAD PUSH2 0x1107 SWAP1 DUP2 PUSH3 0x2C8 DUP3 CODECOPY RETURN JUMPDEST ADD MLOAD SWAP3 POP CODESIZE DUP1 PUSH3 0x151 JUMP JUMPDEST SWAP10 SWAP4 SWAP3 SWAP1 SWAP2 PUSH1 0x1F NOT DUP5 AND SWAP11 DUP7 DUP5 MSTORE DUP1 DUP5 KECCAK256 SWAP4 SWAP1 JUMPDEST DUP13 DUP3 LT PUSH3 0x1DA JUMPI POP POP DUP4 PUSH1 0x4 SWAP10 SWAP11 SWAP12 LT PUSH3 0x1C0 JUMPI JUMPDEST POP POP POP DUP2 SHL ADD SWAP1 SSTORE PUSH3 0x163 JUMP JUMPDEST ADD MLOAD PUSH1 0x0 NOT PUSH1 0xF8 DUP5 PUSH1 0x3 SHL AND SHR NOT AND SWAP1 SSTORE CODESIZE DUP1 DUP1 PUSH3 0x1B2 JUMP JUMPDEST DUP1 DUP8 DUP6 SWAP7 DUP3 SWAP5 SWAP7 DUP7 ADD MLOAD DUP2 SSTORE ADD SWAP6 ADD SWAP4 ADD SWAP1 PUSH3 0x19B JUMP JUMPDEST DUP6 DUP3 MSTORE DUP4 DUP3 KECCAK256 PUSH1 0x1F DUP7 ADD PUSH1 0x5 SHR DUP2 ADD SWAP2 DUP6 DUP8 LT PUSH3 0x232 JUMPI JUMPDEST PUSH1 0x1F ADD PUSH1 0x5 SHR ADD SWAP1 DUP12 SWAP1 JUMPDEST DUP3 DUP2 LT PUSH3 0x226 JUMPI POP POP PUSH3 0x131 JUMP JUMPDEST DUP4 DUP2 SSTORE ADD DUP12 SWAP1 PUSH3 0x216 JUMP JUMPDEST SWAP1 SWAP2 POP DUP2 SWAP1 PUSH3 0x20B JUMP JUMPDEST PUSH4 0x4E487B71 PUSH1 0xE0 SHL DUP3 MSTORE PUSH1 0x22 PUSH1 0x4 MSTORE PUSH1 0x24 DUP3 REVERT JUMPDEST SWAP1 PUSH1 0x7F AND SWAP1 PUSH3 0x11E JUMP JUMPDEST PUSH4 0x4E487B71 PUSH1 0xE0 SHL DUP2 MSTORE PUSH1 0x41 PUSH1 0x4 MSTORE PUSH1 0x24 SWAP1 REVERT JUMPDEST PUSH4 0x4E487B71 PUSH1 0xE0 SHL DUP6 MSTORE PUSH1 0x32 PUSH1 0x4 MSTORE PUSH1 0x24 DUP6 REVERT JUMPDEST PUSH4 0x4E487B71 PUSH1 0xE0 SHL DUP6 MSTORE PUSH1 0x41 PUSH1 0x4 MSTORE PUSH1 0x24 DUP6 REVERT JUMPDEST PUSH4 0x4E487B71 PUSH1 0xE0 SHL DUP3 MSTORE PUSH1 0x41 PUSH1 0x4 MSTORE PUSH1 0x24 DUP3 REVERT JUMPDEST PUSH4 0x1E4FBDF7 PUSH1 0xE0 SHL DUP2 MSTORE PUSH1 0x0 PUSH1 0x4 DUP3 ADD MSTORE PUSH1 0x24 SWAP1 REVERT JUMPDEST PUSH1 0x0 DUP1 REVERT INVALID PUSH1 0x40 PUSH1 0x80 DUP2 MSTORE PUSH1 0x4 SWAP1 DUP2 CALLDATASIZE LT ISZERO PUSH2 0x15 JUMPI PUSH1 0x0 DUP1 REVERT JUMPDEST PUSH1 0x0 SWAP2 DUP3 CALLDATALOAD PUSH1 0xE0 SHR DUP1 PUSH4 0x2B7DCBE EQ PUSH2 0xC7B JUMPI DUP1 PUSH4 0x3E9E609 EQ PUSH2 0xAF4 JUMPI DUP1 PUSH4 0xAE5E739 EQ PUSH2 0xA5A JUMPI DUP1 PUSH4 0x1388C519 EQ PUSH2 0x9F1 JUMPI DUP1 PUSH4 0x34461067 EQ PUSH2 0x96B JUMPI DUP1 PUSH4 0x45F9BA6D EQ PUSH2 0x8C8 JUMPI DUP1 PUSH4 0x48515C46 EQ PUSH2 0x5A5 JUMPI DUP1 PUSH4 0x699CA998 EQ PUSH2 0x53C JUMPI DUP1 PUSH4 0x715018A6 EQ PUSH2 0x4DF JUMPI DUP1 PUSH4 0x85E68531 EQ PUSH2 0x448 JUMPI DUP1 PUSH4 0x8DA5CB5B EQ PUSH2 0x420 JUMPI DUP1 PUSH4 0xCE7D33DE EQ PUSH2 0x1A1 JUMPI DUP1 PUSH4 0xDAB640A6 EQ PUSH2 0x144 JUMPI PUSH4 0xF2FDE38B EQ PUSH2 0xBB JUMPI PUSH1 0x0 DUP1 REVERT JUMPDEST CALLVALUE PUSH2 0x140 JUMPI PUSH1 0x20 CALLDATASIZE PUSH1 0x3 NOT ADD SLT PUSH2 0x140 JUMPI PUSH2 0xD4 PUSH2 0xD6C JUMP JUMPDEST SWAP1 PUSH2 0xDD PUSH2 0x10A5 JUMP JUMPDEST PUSH1 0x1 PUSH1 0x1 PUSH1 0xA0 SHL SUB SWAP2 DUP3 AND SWAP3 DUP4 ISZERO PUSH2 0x12A JUMPI POP POP DUP3 SLOAD PUSH1 0x1 PUSH1 0x1 PUSH1 0xA0 SHL SUB NOT DUP2 AND DUP4 OR DUP5 SSTORE AND PUSH32 0x8BE0079C531659141344CD1FD0A4F28419497F9722A3DAAFE3B4186F6B6457E0 DUP4 DUP1 LOG3 DUP1 RETURN JUMPDEST MLOAD PUSH4 0x1E4FBDF7 PUSH1 0xE0 SHL DUP2 MSTORE SWAP1 DUP2 ADD DUP5 SWAP1 MSTORE PUSH1 0x24 SWAP1 REVERT JUMPDEST DUP3 DUP1 REVERT JUMPDEST POP POP CALLVALUE PUSH2 0x19D JUMPI DUP1 PUSH1 0x3 NOT CALLDATASIZE ADD SLT PUSH2 0x19D JUMPI PUSH2 0x15E PUSH2 0xD6C JUMP JUMPDEST PUSH1 0x1 PUSH1 0x1 PUSH1 0xA0 SHL SUB PUSH1 0x24 CALLDATALOAD DUP2 DUP2 AND SWAP3 SWAP1 DUP4 SWAP1 SUB PUSH2 0x199 JUMPI SWAP4 PUSH1 0xFF SWAP3 DUP5 SWAP3 PUSH1 0x20 SWAP7 AND DUP3 MSTORE PUSH1 0x3 DUP7 MSTORE DUP3 DUP3 KECCAK256 SWAP1 DUP3 MSTORE DUP6 MSTORE KECCAK256 SLOAD AND SWAP1 MLOAD SWAP1 ISZERO ISZERO DUP2 MSTORE RETURN JUMPDEST DUP5 DUP1 REVERT JUMPDEST POP DUP1 REVERT JUMPDEST POP CALLVALUE PUSH2 0x140 JUMPI PUSH1 0x60 CALLDATASIZE PUSH1 0x3 NOT ADD SLT PUSH2 0x140 JUMPI DUP1 CALLDATALOAD SWAP1 PUSH8 0xFFFFFFFFFFFFFFFF PUSH1 0x24 CALLDATALOAD DUP2 DUP2 GT PUSH2 0x41C JUMPI PUSH2 0x1D6 SWAP1 CALLDATASIZE SWAP1 DUP5 ADD PUSH2 0xF0B JUMP JUMPDEST SWAP5 SWAP1 SWAP5 CALLER DUP8 MSTORE PUSH1 0x20 SWAP4 PUSH1 0x5 DUP6 MSTORE PUSH2 0x1F2 PUSH1 0xFF DUP5 DUP11 KECCAK256 SLOAD AND PUSH2 0x100A JUMP JUMPDEST DUP6 ISZERO ISZERO DUP1 PUSH2 0x411 JUMPI JUMPDEST PUSH2 0x204 SWAP1 PUSH2 0xF85 JUMP JUMPDEST PUSH2 0x20D DUP7 PUSH2 0xD87 JUMP JUMPDEST POP SWAP2 PUSH1 0x1 SWAP8 CALLER PUSH1 0x1 DUP1 PUSH1 0xA0 SHL SUB DUP11 DUP7 ADD SLOAD AND SUB PUSH2 0x3A8 JUMPI PUSH1 0x2 DUP5 ADD SWAP6 DUP3 GT PUSH2 0x395 JUMPI PUSH2 0x243 DUP3 PUSH2 0x23D DUP9 SLOAD PUSH2 0xDD8 JUMP JUMPDEST DUP9 PUSH2 0x104F JUMP JUMPDEST DUP10 SWAP1 PUSH1 0x1F DUP4 GT PUSH1 0x1 EQ PUSH2 0x334 JUMPI PUSH2 0x272 SWAP3 SWAP2 DUP12 SWAP2 DUP4 PUSH2 0x329 JUMPI JUMPDEST POP POP DUP2 PUSH1 0x1 SHL SWAP2 PUSH1 0x0 NOT SWAP1 PUSH1 0x3 SHL SHR NOT AND OR SWAP1 JUMP JUMPDEST DUP5 SSTORE JUMPDEST PUSH1 0x44 CALLDATALOAD PUSH1 0x3 DUP4 ADD SSTORE TIMESTAMP SWAP2 ADD SSTORE MLOAD SWAP2 DUP6 SWAP5 DUP3 SLOAD SWAP3 PUSH2 0x291 DUP5 PUSH2 0xDD8 JUMP JUMPDEST SWAP4 DUP3 DUP2 AND SWAP1 DUP2 ISZERO PUSH2 0x30E JUMPI POP PUSH1 0x1 EQ PUSH2 0x2D7 JUMPI JUMPDEST POP POP POP POP DUP1 TIMESTAMP SWAP4 SUB SWAP1 KECCAK256 SWAP1 PUSH32 0x88D9E16504277BF999412471E756EEDF1AB2491C6A6399C9D349D3FEA6D70CF DUP5 DUP1 LOG4 DUP1 RETURN JUMPDEST SWAP1 SWAP2 SWAP3 SWAP4 SWAP6 POP DUP7 MSTORE DUP2 DUP7 KECCAK256 SWAP1 DUP7 SWAP2 JUMPDEST DUP5 DUP4 LT PUSH2 0x2FD JUMPI POP POP POP POP DUP3 ADD SWAP2 CODESIZE DUP1 DUP1 DUP1 PUSH2 0x2A5 JUMP JUMPDEST DUP1 SLOAD DUP8 DUP5 ADD MSTORE SWAP2 DUP4 ADD SWAP2 DUP2 ADD PUSH2 0x2E6 JUMP JUMPDEST PUSH1 0xFF NOT AND DUP7 MSTORE POP POP POP POP DUP1 ISZERO ISZERO MUL DUP2 ADD SWAP3 POP CODESIZE DUP1 DUP1 DUP1 PUSH2 0x2A5 JUMP JUMPDEST ADD CALLDATALOAD SWAP1 POP CODESIZE DUP1 PUSH2 0x25D JUMP JUMPDEST DUP7 DUP12 MSTORE DUP8 DUP12 KECCAK256 DUP11 SWAP4 SWAP3 SWAP1 SWAP2 SWAP1 PUSH1 0x1F NOT DUP5 AND DUP14 JUMPDEST DUP12 DUP3 DUP3 LT PUSH2 0x37F JUMPI POP POP DUP5 GT PUSH2 0x365 JUMPI JUMPDEST POP POP POP DUP2 SHL ADD DUP5 SSTORE PUSH2 0x275 JUMP JUMPDEST ADD CALLDATALOAD PUSH1 0x0 NOT PUSH1 0x3 DUP5 SWAP1 SHL PUSH1 0xF8 AND SHR NOT AND SWAP1 SSTORE CODESIZE DUP1 DUP1 PUSH2 0x358 JUMP JUMPDEST DUP4 DUP6 ADD CALLDATALOAD DUP7 SSTORE DUP15 SWAP8 SWAP1 SWAP6 ADD SWAP5 SWAP3 DUP4 ADD SWAP3 ADD PUSH2 0x347 JUMP JUMPDEST PUSH4 0x4E487B71 PUSH1 0xE0 SHL DUP11 MSTORE PUSH1 0x41 DUP4 MSTORE PUSH1 0x24 DUP11 REVERT JUMPDEST DUP5 MLOAD PUSH3 0x461BCD PUSH1 0xE5 SHL DUP2 MSTORE DUP1 DUP5 ADD DUP9 SWAP1 MSTORE PUSH1 0x3F PUSH1 0x24 DUP3 ADD MSTORE PUSH32 0x4F6E6C792074686520646F63746F722074686174206372656174656420746865 PUSH1 0x44 DUP3 ADD MSTORE PUSH32 0x207265636F726420697320616C6C6F77656420746F2075706461746520697400 PUSH1 0x64 DUP3 ADD MSTORE PUSH1 0x84 SWAP1 REVERT JUMPDEST POP PUSH1 0x1 SLOAD DUP7 LT PUSH2 0x1FB JUMP JUMPDEST DUP6 DUP1 REVERT JUMPDEST POP POP CALLVALUE PUSH2 0x19D JUMPI DUP2 PUSH1 0x3 NOT CALLDATASIZE ADD SLT PUSH2 0x19D JUMPI SWAP1 SLOAD SWAP1 MLOAD PUSH1 0x1 PUSH1 0x1 PUSH1 0xA0 SHL SUB SWAP1 SWAP2 AND DUP2 MSTORE PUSH1 0x20 SWAP1 RETURN JUMPDEST POP CALLVALUE PUSH2 0x140 JUMPI PUSH1 0x20 CALLDATASIZE PUSH1 0x3 NOT ADD SLT PUSH2 0x140 JUMPI PUSH2 0x462 PUSH2 0xD6C JUMP JUMPDEST SWAP1 CALLER DUP5 MSTORE PUSH1 0x20 MSTORE PUSH2 0x478 PUSH1 0xFF DUP4 DUP6 KECCAK256 SLOAD AND PUSH2 0xF39 JUMP JUMPDEST PUSH1 0x1 PUSH1 0x1 PUSH1 0xA0 SHL SUB AND DUP1 DUP4 MSTORE PUSH1 0x5 PUSH1 0x20 MSTORE DUP2 DUP4 KECCAK256 SLOAD SWAP1 SWAP2 SWAP1 PUSH2 0x49C SWAP1 PUSH1 0xFF AND PUSH2 0xFC5 JUMP JUMPDEST CALLER DUP4 MSTORE PUSH1 0x3 PUSH1 0x20 MSTORE DUP1 DUP4 KECCAK256 DUP3 DUP5 MSTORE PUSH1 0x20 MSTORE DUP3 KECCAK256 PUSH1 0xFF NOT DUP2 SLOAD AND SWAP1 SSTORE CALLER PUSH32 0x825C8BE24EB0DF19500F63E86C29E7D0D951E73056B889B891D85E40938D9B6E DUP4 DUP1 LOG3 DUP1 RETURN JUMPDEST DUP4 CALLVALUE PUSH2 0x539 JUMPI DUP1 PUSH1 0x3 NOT CALLDATASIZE ADD SLT PUSH2 0x539 JUMPI PUSH2 0x4F8 PUSH2 0x10A5 JUMP JUMPDEST DUP1 SLOAD PUSH1 0x1 PUSH1 0x1 PUSH1 0xA0 SHL SUB NOT DUP2 AND DUP3 SSTORE DUP2 SWAP1 PUSH1 0x1 PUSH1 0x1 PUSH1 0xA0 SHL SUB AND PUSH32 0x8BE0079C531659141344CD1FD0A4F28419497F9722A3DAAFE3B4186F6B6457E0 DUP3 DUP1 LOG3 DUP1 RETURN JUMPDEST DUP1 REVERT JUMPDEST POP POP CALLVALUE PUSH2 0x19D JUMPI PUSH1 0x20 CALLDATASIZE PUSH1 0x3 NOT ADD SLT PUSH2 0x19D JUMPI PUSH2 0x557 PUSH2 0xD6C JUMP JUMPDEST PUSH2 0x55F PUSH2 0x10A5 JUMP JUMPDEST PUSH1 0x1 PUSH1 0x1 PUSH1 0xA0 SHL SUB AND DUP1 DUP4 MSTORE PUSH1 0x5 PUSH1 0x20 MSTORE SWAP1 DUP3 KECCAK256 DUP1 SLOAD PUSH1 0xFF NOT AND PUSH1 0x1 OR SWAP1 SSTORE PUSH32 0x2DC8105A7545248D0E354C4C6B02FB583071CC719FB4BEF1CA74D72D475570BC DUP3 DUP1 LOG2 DUP1 RETURN JUMPDEST POP SWAP1 CALLVALUE PUSH2 0x140 JUMPI PUSH1 0x60 CALLDATASIZE PUSH1 0x3 NOT ADD SLT PUSH2 0x140 JUMPI PUSH2 0x5C0 PUSH2 0xD6C JUMP JUMPDEST PUSH1 0x24 PUSH8 0xFFFFFFFFFFFFFFFF DUP2 CALLDATALOAD DUP2 DUP2 GT PUSH2 0x8C4 JUMPI PUSH2 0x5E1 SWAP1 CALLDATASIZE SWAP1 DUP8 ADD PUSH2 0xF0B JUMP JUMPDEST SWAP3 SWAP1 SWAP3 CALLER DUP9 MSTORE PUSH1 0x20 SWAP2 PUSH1 0x5 DUP4 MSTORE PUSH2 0x5FD PUSH1 0xFF DUP9 DUP12 KECCAK256 SLOAD AND PUSH2 0x100A JUMP JUMPDEST PUSH1 0x1 PUSH1 0x1 PUSH1 0xA0 SHL SUB SWAP6 DUP7 AND DUP1 DUP11 MSTORE DUP9 DUP5 MSTORE DUP8 DUP11 KECCAK256 SLOAD SWAP1 SWAP9 SWAP1 PUSH1 0xFF AND ISZERO PUSH2 0x892 JUMPI DUP8 MLOAD SWAP8 PUSH2 0x629 DUP10 PUSH2 0xE12 JUMP JUMPDEST DUP10 DUP10 MSTORE DUP5 DUP10 ADD SWAP7 CALLER DUP9 MSTORE DUP7 DUP6 GT PUSH2 0x880 JUMPI DUP12 SWAP1 DUP3 MLOAD SWAP6 PUSH2 0x652 DUP9 PUSH1 0x1F NOT PUSH1 0x1F DUP5 ADD AND ADD DUP9 PUSH2 0xE44 JUMP JUMPDEST DUP1 DUP8 MSTORE CALLDATASIZE DUP2 DUP4 ADD GT PUSH2 0x140 JUMPI DUP1 DUP9 SWAP3 DUP4 DUP10 ADD CALLDATACOPY DUP7 ADD ADD MSTORE DUP1 DUP10 ADD SWAP4 DUP5 MSTORE PUSH1 0x60 DUP10 ADD SWAP9 PUSH1 0x44 CALLDATALOAD DUP11 MSTORE PUSH1 0x80 DUP2 ADD SWAP10 TIMESTAMP DUP12 MSTORE PUSH1 0x1 SWAP6 DUP7 SLOAD SWAP9 PUSH9 0x10000000000000000 SWAP10 DUP11 DUP2 LT ISZERO PUSH2 0x85B JUMPI DUP1 DUP10 PUSH2 0x6A8 SWAP3 ADD DUP11 SSTORE PUSH2 0xD87 JUMP JUMPDEST SWAP5 SWAP1 SWAP5 PUSH2 0x86E JUMPI DUP13 SWAP1 MLOAD AND PUSH12 0xFFFFFFFFFFFFFFFFFFFFFFFF PUSH1 0xA0 SHL SWAP1 DUP2 DUP7 SLOAD AND OR DUP6 SSTORE DUP9 DUP6 ADD SWAP1 DUP14 DUP14 MLOAD AND SWAP1 DUP3 SLOAD AND OR SWAP1 SSTORE PUSH1 0x2 DUP5 ADD SWAP2 MLOAD SWAP1 DUP2 MLOAD SWAP1 DUP2 GT PUSH2 0x85B JUMPI DUP16 PUSH2 0x6FF DUP3 PUSH2 0x6F9 DUP7 SLOAD PUSH2 0xDD8 JUMP JUMPDEST DUP7 PUSH2 0x104F JUMP JUMPDEST DUP11 SWAP1 PUSH1 0x1F DUP4 GT PUSH1 0x1 EQ PUSH2 0x7FC JUMPI SWAP1 PUSH2 0x72B SWAP4 DUP4 PUSH2 0x7F1 JUMPI POP POP DUP2 PUSH1 0x1 SHL SWAP2 PUSH1 0x0 NOT SWAP1 PUSH1 0x3 SHL SHR NOT AND OR SWAP1 JUMP JUMPDEST SWAP1 SSTORE JUMPDEST MLOAD PUSH1 0x3 DUP3 ADD SSTORE DUP10 MLOAD SWAP1 DUP4 ADD SSTORE DUP4 SLOAD PUSH1 0x0 NOT DUP2 ADD SWAP11 SWAP1 DUP12 GT PUSH2 0x7DF JUMPI DUP1 DUP13 MSTORE PUSH1 0x3 DUP7 MSTORE DUP2 DUP13 KECCAK256 CALLER DUP14 MSTORE DUP7 MSTORE DUP2 DUP13 KECCAK256 DUP6 PUSH1 0xFF NOT DUP3 SLOAD AND OR SWAP1 SSTORE DUP12 MSTORE PUSH1 0x2 DUP6 MSTORE DUP11 KECCAK256 SWAP3 DUP4 SLOAD SWAP6 DUP7 LT ISZERO PUSH2 0x7CD JUMPI DUP6 ADD DUP1 DUP5 SSTORE DUP6 LT ISZERO PUSH2 0x7BC JUMPI POP POP SWAP1 DUP7 SWAP3 SWAP2 DUP9 MSTORE DUP8 KECCAK256 ADD SSTORE MLOAD AND SWAP1 MLOAD SWAP2 PUSH32 0x5DB2B66A36D642DA12984088597EEA7ECB05A7CF389F50B7BEAB60876D172AD2 DUP5 DUP1 LOG4 DUP1 RETURN JUMPDEST PUSH4 0x4E487B71 PUSH1 0xE0 SHL DUP11 MSTORE PUSH1 0x32 SWAP1 MSTORE DUP9 REVERT JUMPDEST POP PUSH4 0x4E487B71 PUSH1 0xE0 SHL DUP11 MSTORE PUSH1 0x41 SWAP1 MSTORE DUP9 REVERT JUMPDEST PUSH4 0x4E487B71 PUSH1 0xE0 SHL DUP13 MSTORE PUSH1 0x11 DUP4 MSTORE DUP4 DUP13 REVERT JUMPDEST ADD MLOAD SWAP1 POP CODESIZE DUP1 PUSH2 0x25D JUMP JUMPDEST SWAP1 DUP11 SWAP4 PUSH1 0x1F NOT DUP5 AND DUP7 DUP5 MSTORE DUP14 DUP1 DUP6 KECCAK256 SWAP5 SWAP1 JUMPDEST DUP3 DUP3 LT PUSH2 0x844 JUMPI POP POP DUP5 GT PUSH2 0x82B JUMPI JUMPDEST POP POP POP DUP2 SHL ADD SWAP1 SSTORE PUSH2 0x72E JUMP JUMPDEST ADD MLOAD PUSH1 0x0 NOT PUSH1 0xF8 DUP5 PUSH1 0x3 SHL AND SHR NOT AND SWAP1 SSTORE CODESIZE DUP1 DUP1 PUSH2 0x81E JUMP JUMPDEST DUP4 DUP6 ADD MLOAD DUP7 SSTORE DUP15 SWAP8 SWAP1 SWAP6 ADD SWAP5 SWAP4 DUP5 ADD SWAP4 ADD DUP15 PUSH2 0x80E JUMP JUMPDEST POP PUSH4 0x4E487B71 PUSH1 0xE0 SHL DUP16 MSTORE PUSH1 0x41 DUP7 MSTORE DUP7 DUP16 REVERT JUMPDEST POP PUSH4 0x4E487B71 PUSH1 0xE0 SHL DUP16 MSTORE DUP15 DUP7 MSTORE DUP7 DUP16 REVERT JUMPDEST PUSH4 0x4E487B71 PUSH1 0xE0 SHL DUP13 MSTORE PUSH1 0x41 DUP4 MSTORE DUP4 DUP13 REVERT JUMPDEST PUSH1 0xF PUSH1 0x64 SWAP3 DUP6 DUP11 MLOAD SWAP4 PUSH3 0x461BCD PUSH1 0xE5 SHL DUP6 MSTORE DUP5 ADD MSTORE DUP3 ADD MSTORE PUSH15 0x155B9ADB9BDDDB881C185D1A595B9D PUSH1 0x8A SHL PUSH1 0x44 DUP3 ADD MSTORE REVERT JUMPDEST DUP7 DUP1 REVERT JUMPDEST POP SWAP2 SWAP1 CALLVALUE PUSH2 0x19D JUMPI PUSH1 0x20 CALLDATASIZE PUSH1 0x3 NOT ADD SLT PUSH2 0x19D JUMPI PUSH1 0x20 SWAP3 CALLDATALOAD SWAP2 DUP3 ISZERO ISZERO DUP1 PUSH2 0x960 JUMPI JUMPDEST PUSH2 0x8F3 SWAP1 PUSH2 0xF85 JUMP JUMPDEST PUSH2 0x8FC DUP4 PUSH2 0xD87 JUMP JUMPDEST POP SLOAD PUSH1 0x1 PUSH1 0x1 PUSH1 0xA0 SHL SUB SWAP1 DUP2 AND SWAP4 PUSH1 0x1 SWAP1 PUSH2 0x916 SWAP1 PUSH2 0xD87 JUMP JUMPDEST POP ADD SLOAD AND SWAP3 CALLER DUP2 EQ SWAP4 DUP5 ISZERO PUSH2 0x956 JUMPI JUMPDEST POP DUP4 ISZERO PUSH2 0x938 JUMPI JUMPDEST POP POP MLOAD SWAP1 ISZERO ISZERO DUP2 MSTORE RETURN JUMPDEST DUP2 MSTORE PUSH1 0x3 DUP5 MSTORE DUP2 DUP2 KECCAK256 CALLER DUP3 MSTORE DUP5 MSTORE DUP2 SWAP1 KECCAK256 SLOAD PUSH1 0xFF AND SWAP2 POP CODESIZE DUP1 PUSH2 0x92E JUMP JUMPDEST CALLER EQ SWAP4 POP CODESIZE PUSH2 0x926 JUMP JUMPDEST POP PUSH1 0x1 SLOAD DUP4 LT PUSH2 0x8EA JUMP JUMPDEST POP SWAP2 CALLVALUE PUSH2 0x539 JUMPI PUSH1 0x20 CALLDATASIZE PUSH1 0x3 NOT ADD SLT PUSH2 0x539 JUMPI DUP3 CALLDATALOAD SWAP1 PUSH1 0x1 SLOAD DUP3 LT ISZERO PUSH2 0x539 JUMPI POP PUSH2 0x995 SWAP1 PUSH2 0xD87 JUMP JUMPDEST POP DUP1 SLOAD PUSH1 0x1 DUP3 ADD SLOAD PUSH1 0x1 PUSH1 0x1 PUSH1 0xA0 SHL SUB SWAP1 DUP2 AND SWAP5 SWAP2 AND SWAP3 SWAP1 PUSH2 0x9E2 SWAP1 PUSH1 0xA0 PUSH2 0x9BF PUSH1 0x2 DUP7 ADD PUSH2 0xE66 JUMP JUMPDEST SWAP2 PUSH1 0x3 DUP7 ADD SLOAD SWAP6 ADD SLOAD SWAP4 DUP1 MLOAD SWAP8 DUP9 SWAP8 DUP9 MSTORE PUSH1 0x20 DUP9 ADD MSTORE DUP7 ADD MSTORE PUSH1 0xA0 DUP6 ADD SWAP1 PUSH2 0xD2C JUMP JUMPDEST SWAP2 PUSH1 0x60 DUP5 ADD MSTORE PUSH1 0x80 DUP4 ADD MSTORE SUB SWAP1 RETURN JUMPDEST POP SWAP1 CALLVALUE PUSH2 0x140 JUMPI PUSH1 0x20 CALLDATASIZE PUSH1 0x3 NOT ADD SLT PUSH2 0x140 JUMPI PUSH2 0xA0C PUSH2 0xD6C JUMP JUMPDEST PUSH2 0xA14 PUSH2 0x10A5 JUMP JUMPDEST PUSH1 0x1 PUSH1 0x1 PUSH1 0xA0 SHL SUB AND DUP1 DUP5 MSTORE PUSH1 0x20 SWAP3 SWAP1 SWAP3 MSTORE DUP3 KECCAK256 DUP1 SLOAD PUSH1 0xFF NOT AND PUSH1 0x1 OR SWAP1 SSTORE PUSH32 0xC9FA2003FCA4CE0DFC8CB0DEAE32266B715536DF6685365B05B5BE96EDE8E49C DUP3 DUP1 LOG2 DUP1 RETURN JUMPDEST POP CALLVALUE PUSH2 0x140 JUMPI PUSH1 0x20 CALLDATASIZE PUSH1 0x3 NOT ADD SLT PUSH2 0x140 JUMPI PUSH2 0xA74 PUSH2 0xD6C JUMP JUMPDEST SWAP1 CALLER DUP5 MSTORE PUSH1 0x20 MSTORE PUSH2 0xA8A PUSH1 0xFF DUP4 DUP6 KECCAK256 SLOAD AND PUSH2 0xF39 JUMP JUMPDEST PUSH1 0x1 PUSH1 0x1 PUSH1 0xA0 SHL SUB AND DUP1 DUP4 MSTORE PUSH1 0x5 PUSH1 0x20 MSTORE DUP2 DUP4 KECCAK256 SLOAD SWAP1 SWAP2 SWAP1 PUSH2 0xAAE SWAP1 PUSH1 0xFF AND PUSH2 0xFC5 JUMP JUMPDEST CALLER DUP4 MSTORE PUSH1 0x3 PUSH1 0x20 MSTORE DUP1 DUP4 KECCAK256 DUP3 DUP5 MSTORE PUSH1 0x20 MSTORE DUP3 KECCAK256 PUSH1 0x1 PUSH1 0xFF NOT DUP3 SLOAD AND OR SWAP1 SSTORE CALLER PUSH32 0x9F520B3BFC56D06F7065D10B4683B3F57AC8895D5026CD176DEE95CE1454CB8D DUP4 DUP1 LOG3 DUP1 RETURN JUMPDEST POP CALLVALUE PUSH2 0x140 JUMPI PUSH1 0x20 DUP1 PUSH1 0x3 NOT CALLDATASIZE ADD SLT PUSH2 0xC77 JUMPI DUP2 CALLDATALOAD DUP5 PUSH1 0x80 DUP6 MLOAD PUSH2 0xB17 DUP2 PUSH2 0xE12 JUMP JUMPDEST DUP3 DUP2 MSTORE DUP3 DUP6 DUP3 ADD MSTORE PUSH1 0x60 DUP8 DUP3 ADD MSTORE DUP3 PUSH1 0x60 DUP3 ADD MSTORE ADD MSTORE PUSH2 0xB36 DUP2 PUSH2 0xD87 JUMP JUMPDEST POP SLOAD PUSH1 0x1 PUSH1 0x1 PUSH1 0xA0 SHL SUB SWAP6 SWAP1 DUP7 AND SWAP1 DUP6 SWAP1 DUP8 PUSH1 0x1 PUSH2 0xB53 DUP7 PUSH2 0xD87 JUMP JUMPDEST POP ADD SLOAD AND SWAP3 CALLER DUP2 EQ SWAP4 DUP5 ISZERO PUSH2 0xC6D JUMPI JUMPDEST POP DUP4 ISZERO PUSH2 0xC50 JUMPI JUMPDEST POP POP POP ISZERO PUSH2 0xC1F JUMPI PUSH2 0xB91 DUP2 PUSH2 0xC03 SWAP3 ISZERO ISZERO DUP1 PUSH2 0xC14 JUMPI JUMPDEST PUSH2 0xB8C SWAP1 PUSH2 0xF85 JUMP JUMPDEST PUSH2 0xD87 JUMP JUMPDEST POP SWAP3 DUP5 MLOAD SWAP5 PUSH2 0xB9F DUP7 PUSH2 0xE12 JUMP JUMPDEST DUP7 DUP6 SLOAD AND DUP7 MSTORE DUP7 DUP1 PUSH1 0x1 DUP8 ADD SLOAD AND DUP6 DUP9 ADD SWAP1 DUP2 MSTORE PUSH2 0xBBF PUSH1 0x2 DUP9 ADD PUSH2 0xE66 JUMP JUMPDEST SWAP4 DUP4 DUP10 ADD SWAP5 DUP6 MSTORE PUSH1 0x3 DUP9 ADD SLOAD SWAP8 PUSH1 0x60 DUP11 ADD SWAP9 DUP10 MSTORE ADD SLOAD SWAP6 PUSH1 0x80 DUP10 ADD SWAP7 DUP8 MSTORE DUP4 MLOAD SWAP10 DUP11 SWAP10 DUP3 DUP12 MSTORE MLOAD AND SWAP1 DUP10 ADD MSTORE MLOAD AND SWAP1 DUP7 ADD MSTORE MLOAD PUSH1 0xA0 PUSH1 0x60 DUP7 ADD MSTORE PUSH1 0xC0 DUP6 ADD SWAP1 PUSH2 0xD2C JUMP JUMPDEST SWAP2 MLOAD PUSH1 0x80 DUP5 ADD MSTORE MLOAD PUSH1 0xA0 DUP4 ADD MSTORE SUB SWAP1 RETURN JUMPDEST POP PUSH1 0x1 SLOAD DUP2 LT PUSH2 0xB83 JUMP JUMPDEST POP PUSH1 0x64 SWAP3 MLOAD SWAP2 PUSH3 0x461BCD PUSH1 0xE5 SHL DUP4 MSTORE DUP3 ADD MSTORE PUSH1 0xD PUSH1 0x24 DUP3 ADD MSTORE PUSH13 0x1058D8D95CDCC819195B9A5959 PUSH1 0x9A SHL PUSH1 0x44 DUP3 ADD MSTORE REVERT JUMPDEST PUSH1 0xFF SWAP4 POP DUP2 MSTORE PUSH1 0x3 DUP6 MSTORE DUP2 DUP2 KECCAK256 CALLER DUP3 MSTORE DUP6 MSTORE KECCAK256 SLOAD AND DUP5 CODESIZE DUP1 PUSH2 0xB6B JUMP JUMPDEST CALLER EQ SWAP4 POP CODESIZE PUSH2 0xB63 JUMP JUMPDEST DUP4 DUP1 REVERT JUMPDEST POP DUP3 CALLVALUE PUSH2 0x539 JUMPI DUP1 PUSH1 0x3 NOT CALLDATASIZE ADD SLT PUSH2 0x539 JUMPI DUP3 SWAP1 CALLER DUP2 MSTORE PUSH1 0x20 SWAP3 DUP4 MSTORE PUSH2 0xCA6 PUSH1 0xFF DUP4 DUP4 KECCAK256 SLOAD AND PUSH2 0xF39 JUMP JUMPDEST CALLER DUP2 MSTORE PUSH1 0x2 DUP4 MSTORE DUP2 DUP2 KECCAK256 SWAP1 DUP3 MLOAD DUP1 DUP6 DUP5 SLOAD SWAP2 DUP3 DUP2 MSTORE ADD SWAP1 DUP2 SWAP5 DUP5 MSTORE DUP7 DUP5 KECCAK256 SWAP1 DUP5 JUMPDEST DUP2 DUP2 LT PUSH2 0xD18 JUMPI POP POP POP DUP2 PUSH2 0xCDD SWAP2 SUB DUP3 PUSH2 0xE44 JUMP JUMPDEST DUP4 MLOAD SWAP5 DUP6 SWAP5 DUP2 DUP7 ADD SWAP3 DUP3 DUP8 MSTORE MLOAD DUP1 SWAP4 MSTORE DUP6 ADD SWAP4 SWAP3 JUMPDEST DUP3 DUP2 LT PUSH2 0xD01 JUMPI POP POP POP POP SUB SWAP1 RETURN JUMPDEST DUP4 MLOAD DUP6 MSTORE DUP7 SWAP6 POP SWAP4 DUP2 ADD SWAP4 SWAP3 DUP2 ADD SWAP3 PUSH1 0x1 ADD PUSH2 0xCF2 JUMP JUMPDEST DUP3 SLOAD DUP5 MSTORE SWAP3 DUP9 ADD SWAP3 PUSH1 0x1 SWAP3 DUP4 ADD SWAP3 ADD PUSH2 0xCC7 JUMP JUMPDEST SWAP2 SWAP1 DUP3 MLOAD SWAP3 DUP4 DUP3 MSTORE PUSH1 0x0 JUMPDEST DUP5 DUP2 LT PUSH2 0xD58 JUMPI POP POP DUP3 PUSH1 0x0 PUSH1 0x20 DUP1 SWAP5 SWAP6 DUP5 ADD ADD MSTORE PUSH1 0x1F DUP1 NOT SWAP2 ADD AND ADD ADD SWAP1 JUMP JUMPDEST PUSH1 0x20 DUP2 DUP4 ADD DUP2 ADD MLOAD DUP5 DUP4 ADD DUP3 ADD MSTORE ADD PUSH2 0xD37 JUMP JUMPDEST PUSH1 0x4 CALLDATALOAD SWAP1 PUSH1 0x1 PUSH1 0x1 PUSH1 0xA0 SHL SUB DUP3 AND DUP3 SUB PUSH2 0xD82 JUMPI JUMP JUMPDEST PUSH1 0x0 DUP1 REVERT JUMPDEST PUSH1 0x1 SLOAD DUP2 LT ISZERO PUSH2 0xDC2 JUMPI PUSH1 0x5 SWAP1 PUSH1 0x1 PUSH1 0x0 MSTORE MUL PUSH32 0xB10E2D527612073B26EECDFD717E6A320CF44B4AFAC2B0732D9FCBE2B7FA0CF6 ADD SWAP1 PUSH1 0x0 SWAP1 JUMP JUMPDEST PUSH4 0x4E487B71 PUSH1 0xE0 SHL PUSH1 0x0 MSTORE PUSH1 0x32 PUSH1 0x4 MSTORE PUSH1 0x24 PUSH1 0x0 REVERT JUMPDEST SWAP1 PUSH1 0x1 DUP3 DUP2 SHR SWAP3 AND DUP1 ISZERO PUSH2 0xE08 JUMPI JUMPDEST PUSH1 0x20 DUP4 LT EQ PUSH2 0xDF2 JUMPI JUMP JUMPDEST PUSH4 0x4E487B71 PUSH1 0xE0 SHL PUSH1 0x0 MSTORE PUSH1 0x22 PUSH1 0x4 MSTORE PUSH1 0x24 PUSH1 0x0 REVERT JUMPDEST SWAP2 PUSH1 0x7F AND SWAP2 PUSH2 0xDE7 JUMP JUMPDEST PUSH1 0xA0 DUP2 ADD SWAP1 DUP2 LT PUSH8 0xFFFFFFFFFFFFFFFF DUP3 GT OR PUSH2 0xE2E JUMPI PUSH1 0x40 MSTORE JUMP JUMPDEST PUSH4 0x4E487B71 PUSH1 0xE0 SHL PUSH1 0x0 MSTORE PUSH1 0x41 PUSH1 0x4 MSTORE PUSH1 0x24 PUSH1 0x0 REVERT JUMPDEST SWAP1 PUSH1 0x1F DUP1 NOT SWAP2 ADD AND DUP2 ADD SWAP1 DUP2 LT PUSH8 0xFFFFFFFFFFFFFFFF DUP3 GT OR PUSH2 0xE2E JUMPI PUSH1 0x40 MSTORE JUMP JUMPDEST SWAP1 PUSH1 0x40 MLOAD SWAP2 DUP3 PUSH1 0x0 DUP3 SLOAD PUSH2 0xE79 DUP2 PUSH2 0xDD8 JUMP JUMPDEST SWAP1 DUP2 DUP5 MSTORE PUSH1 0x20 SWAP5 PUSH1 0x1 SWAP2 PUSH1 0x1 DUP2 AND SWAP1 DUP2 PUSH1 0x0 EQ PUSH2 0xEE9 JUMPI POP PUSH1 0x1 EQ PUSH2 0xEAA JUMPI JUMPDEST POP POP POP PUSH2 0xEA8 SWAP3 POP SUB DUP4 PUSH2 0xE44 JUMP JUMPDEST JUMP JUMPDEST PUSH1 0x0 SWAP1 DUP2 MSTORE DUP6 DUP2 KECCAK256 SWAP6 SWAP4 POP SWAP2 SWAP1 JUMPDEST DUP2 DUP4 LT PUSH2 0xED1 JUMPI POP POP PUSH2 0xEA8 SWAP4 POP DUP3 ADD ADD CODESIZE DUP1 DUP1 PUSH2 0xE99 JUMP JUMPDEST DUP6 SLOAD DUP9 DUP5 ADD DUP6 ADD MSTORE SWAP5 DUP6 ADD SWAP5 DUP8 SWAP5 POP SWAP2 DUP4 ADD SWAP2 PUSH2 0xEB8 JUMP JUMPDEST SWAP3 POP POP POP PUSH2 0xEA8 SWAP5 SWAP3 POP PUSH1 0xFF NOT AND DUP3 DUP5 ADD MSTORE ISZERO ISZERO PUSH1 0x5 SHL DUP3 ADD ADD CODESIZE DUP1 DUP1 PUSH2 0xE99 JUMP JUMPDEST SWAP2 DUP2 PUSH1 0x1F DUP5 ADD SLT ISZERO PUSH2 0xD82 JUMPI DUP3 CALLDATALOAD SWAP2 PUSH8 0xFFFFFFFFFFFFFFFF DUP4 GT PUSH2 0xD82 JUMPI PUSH1 0x20 DUP4 DUP2 DUP7 ADD SWAP6 ADD ADD GT PUSH2 0xD82 JUMPI JUMP JUMPDEST ISZERO PUSH2 0xF40 JUMPI JUMP JUMPDEST PUSH1 0x40 MLOAD PUSH3 0x461BCD PUSH1 0xE5 SHL DUP2 MSTORE PUSH1 0x20 PUSH1 0x4 DUP3 ADD MSTORE PUSH1 0x17 PUSH1 0x24 DUP3 ADD MSTORE PUSH32 0x43616C6C6572206973206E6F7420612070617469656E74000000000000000000 PUSH1 0x44 DUP3 ADD MSTORE PUSH1 0x64 SWAP1 REVERT JUMPDEST ISZERO PUSH2 0xF8C JUMPI JUMP JUMPDEST PUSH1 0x40 MLOAD PUSH3 0x461BCD PUSH1 0xE5 SHL DUP2 MSTORE PUSH1 0x20 PUSH1 0x4 DUP3 ADD MSTORE PUSH1 0x11 PUSH1 0x24 DUP3 ADD MSTORE PUSH17 0x125B9D985B1A59081C9958DBDC99081251 PUSH1 0x7A SHL PUSH1 0x44 DUP3 ADD MSTORE PUSH1 0x64 SWAP1 REVERT JUMPDEST ISZERO PUSH2 0xFCC JUMPI JUMP JUMPDEST PUSH1 0x40 MLOAD PUSH3 0x461BCD PUSH1 0xE5 SHL DUP2 MSTORE PUSH1 0x20 PUSH1 0x4 DUP3 ADD MSTORE PUSH1 0x16 PUSH1 0x24 DUP3 ADD MSTORE PUSH22 0x2A30B933B2BA1034B9903737BA1030903237B1BA37B9 PUSH1 0x51 SHL PUSH1 0x44 DUP3 ADD MSTORE PUSH1 0x64 SWAP1 REVERT JUMPDEST ISZERO PUSH2 0x1011 JUMPI JUMP JUMPDEST PUSH1 0x40 MLOAD PUSH3 0x461BCD PUSH1 0xE5 SHL DUP2 MSTORE PUSH1 0x20 PUSH1 0x4 DUP3 ADD MSTORE PUSH1 0x16 PUSH1 0x24 DUP3 ADD MSTORE PUSH22 0x21B0B63632B91034B9903737BA1030903237B1BA37B9 PUSH1 0x51 SHL PUSH1 0x44 DUP3 ADD MSTORE PUSH1 0x64 SWAP1 REVERT JUMPDEST SWAP1 PUSH1 0x1F DUP2 GT PUSH2 0x105D JUMPI POP POP POP JUMP JUMPDEST PUSH1 0x0 SWAP2 PUSH1 0x0 MSTORE PUSH1 0x20 PUSH1 0x0 KECCAK256 SWAP1 PUSH1 0x20 PUSH1 0x1F DUP6 ADD PUSH1 0x5 SHR DUP4 ADD SWAP5 LT PUSH2 0x109B JUMPI JUMPDEST PUSH1 0x1F ADD PUSH1 0x5 SHR ADD SWAP2 JUMPDEST DUP3 DUP2 LT PUSH2 0x1090 JUMPI POP POP POP JUMP JUMPDEST DUP2 DUP2 SSTORE PUSH1 0x1 ADD PUSH2 0x1084 JUMP JUMPDEST SWAP1 SWAP3 POP DUP3 SWAP1 PUSH2 0x107B JUMP JUMPDEST PUSH1 0x0 SLOAD PUSH1 0x1 PUSH1 0x1 PUSH1 0xA0 SHL SUB AND CALLER SUB PUSH2 0x10B9 JUMPI JUMP JUMPDEST PUSH1 0x40 MLOAD PUSH4 0x118CDAA7 PUSH1 0xE0 SHL DUP2 MSTORE CALLER PUSH1 0x4 DUP3 ADD MSTORE PUSH1 0x24 SWAP1 REVERT INVALID LOG2 PUSH5 0x6970667358 0x22 SLT KECCAK256 CREATE 0xDB SWAP2 0xA8 PUSH3 0x97ABAD 0xEF 0xC5 0x4F CALL NUMBER ADD ADD PUSH26 0x702200FF2A225F5600F748AF7D7FE5C864736F6C634300081700 CALLER "},"methodIdentifiers":{"addRecord(address,string,bytes32)":"48515c46","canView(uint256)":"45f9ba6d","getPersonalRecords()":"02b7dcbe","getRecord(uint256)":"03e9e609","grantAccess(address)":"0ae5e739","owner()":"8da5cb5b","records(uint256)":"34461067","recordsAccess(address,address)":"dab640a6","registerDoctor(address)":"699ca998","registerPatient(address)":"1388c519","renounceOwnership()":"715018a6","revokeAccess(address)":"85e68531","transferOwnership(address)":"f2fde38b","updateRecord(uint256,string,bytes32)":"ce7d33de"}}}}}